:020000021000EC
:10B0000000400020FD1902003D1A02003F1A020014
:10B010000000000000000000000000000000000030
:10B02000000000000000000000000000411A0200C3
:10B030000000000000000000431A0200451A020050
:10B04000471A0200471A0200CDCC0100A5C8010032
:10B05000471A02000000000099BF0100471A0200D1
:10B06000471A0200471A0200471A0200471A020054
:10B07000471A0200471A0200471A0200471A020044
:10B08000471A0200C9B30100471A0200471A02001A
:10B09000A5B40100471A02006D190200471A020008
:10B0A000471A0200471A02000000000000000000DA
:10B0B0000000000000000000000000000000000090
:10B0C00010B5064C2378002B07D1054B002B02D07E
:10B0D000044800E000BF0123237010BD08210020B8
:10B0E00000000000BC36020008B5084B002B03D05E
:10B0F0000748084900E000BF07480368002B00D15B
:10B1000008BD064B002BFBD09847F9E70000000074
:10B11000BC3602000C2100200421002000000000A9
:10B12000164B002B00D1144B9D46402292029A1AD6
:10B13000924600218B460F461348144A121A00F01B
:10B1400067F80F4B002B00D098470E4B002B00D018
:10B1500098470020002104000D000D48002802D06F
:10B160000C4800E000BF00F02DF82000290003F09B
:10B17000E3FA00F011F8C04600000800004000208B
:10B18000000000000000000008210020202B00200B
:10B190000000000000000000084B10B5041C002B4C
:10B1A00002D0002100E000BF054B1868836A002B25
:10B1B00000D09847201C00F033F8C0460000000083
:10B1C0001C3402000E4B70B500251E1C0D4CE41AF9
:10B1D000A410A54204D0AB00F35898470135F8E716
:10B1E00008F00EF9084B00251E1C084CE41AA410A8
:10B1F000A54204D0AB00F35898470135F8E770BD7D
:10B20000FC200020FC200020FC2000200021002049
:10B21000031C8218934202D019700133FAE7704779
:10B22000FEE7C046031C10B59C888068DA68121AD5
:10B230000420944200D210BDDA68002014401A683D
:10B240001155DA680132DA60F5E7C04610B5846856
:10B25000C268031C0520944209D098689A8802406D
:10B260001868825C00200A709A6801329A6010BDEA
:10B27000002804D0034B5B6D03600020704703205F
:10B28000FCE7C04624210020032330B51340051CF1
:10B290000720002B00D030BD08484C1CE4000260A1
:10B2A000A4B2074812190260064A00201370064A29
:10B2B0001370064B1D80064B1980ECE77C210020A3
:10B2C0008021002087210020862100208421002069
:10B2D00088210020F8B54F464646C0B4164C174D9D
:10B2E00022782B789A4222D0154B164F9946164B4E
:10B2F000164E98464A46207823781188DBB2C0B2B1
:10B300000022994201D90133DAB243461B68227008
:10B310009C463388C20058433B6862449C469188EF
:10B3200013686044984722782B789A42E2D10CBC8B
:10B3300090469946F8BDC04686210020872100200E
:10B3400088210020802100207C21002084210020F1
:10B3500080218023184A8902D1508022D221174BA4
:10B36000520289005A5040395A5001222F205A6007
:10B370000138C046C046C046C046C046C046C0466A
:10B38000C046C046C046C046C046F1D19A600023C0
:10B390000B4A2F2013600138C046C046C046C04645
:10B3A000C046C046C046C046C046C046C046C0466D
:10B3B000F1D1044A1370704700E100E00010014031
:10B3C0008C210020AC210020A021F0B500234746AD
:10B3D0002B4A490080B45350043153500431535028
:10B3E000043153504C39535004315350254B1B6892
:10B3F000002B35D02449002652582449244F0C688C
:10B40000141B00222402240A904602E0002D18D0CA
:10B410002B1C1A68A24214D8A41AB6181A7CDD692B
:10B42000002AF3D0424699691A745A693B68002B86
:10B4300019D0101C98470028E8D000F0DBFC002D44
:10B44000E6D1144B14491A780B789A420ED0134A5D
:10B450009B009E5080218023114A49035B00D150FC
:10B4600004BC9046F0BD081C9047CFE70132D3B230
:10B47000022B01D00B70EAE700230B70E7E7C04610
:10B480000010014090210020040500008C210020C4
:10B4900094210020A0210020A1210020A42100202F
:10B4A00000E100E0F0B55F4656464D464446F0B434
:10B4B000B54BB64A1B68B64989B001930978137831
:10B4C000994200D1B3E10133DBB2022B00D100235A
:10B4D0001370B04A9B009B58AB4A9946019B4B4462
:10B4E0001B021B0A136001230493AB4B00241B684F
:10B4F0009B46AA4BD8461B781A1C0293A84B94462D
:10B5000007931B680393A04B1B680693A54B1B78FE
:10B5100005935B466646013EF2B29446FF2A4FD041
:10B520006246D000039A9246504401784578A94279
:10B53000F0D04A005218877801314668C9B27F1AA4
:10B54000B2467E1EB741D2007F425244394017783E
:10B55000022F0AD0032FEAD1002BE8D01C74DB693C
:10B56000002BFBD145789846E1E75668002B25D0A3
:10B570009E421AD01F1C00E0171CFA69002AD6D080
:10B580009642F9D1321C3D1CBE4200D1EBE0176857
:10B59000D269EA61002A06D013689A4657441760B8
:10B5A00045784346C3E74578C1E7DE691A1C002E9B
:10B5B00000D1DDE0B046331C151CE8E70023B6E7F8
:10B5C0004146754A181C11606F4A06990393116031
:10B5D0006946744A097D1170049A002A00D02AE154
:10B5E0005B461B1A5A1E93410025DBB20493079B4E
:10B5F00000271B68039E0693634B1B689C46664BA3
:10B600001B689A46674B1B780593674B0193012390
:10B610009846029B013BDBB20293FF2B00D18FE0E7
:10B62000069ADB0093469B44002D27D06968AB68DF
:10B63000281CED696246019C8A1A1202120AA24273
:10B6400050D8D31842460360476087600274C761D0
:10B65000002E56D03168341C994204D35FE0116843
:10B66000994263D2141CE2695B1A002AF7D1036085
:10B67000331CC261E0611E1C002DD7D15B465A46C7
:10B680001B7852789A42C4D0594649685A00894674
:10B690005946D2180133DBB20B708978D2004A4484
:10B6A00099424AD011785068331C0129E3D1037CB8
:10B6B00099464946331C0029DDD191684160D36821
:10B6C00083601469C46052698261059A002AB1D00E
:10B6D0004A46002142606246019C8A1A1202120AFE
:10B6E000A242AED96246511A0902090A99420CD205
:10B6F00042465B1A0360476087600274C761002E90
:10B70000A8D1031C82461E1CB6E74346076047606B
:10B7100087600374C761002EF3D000233168CB1A11
:10B720003360031CC66182461E1CA5E7C91A11605E
:10B730000360C261331CE0619DE75B461D70B1E7A9
:10B740005246154B1A60039BB34231D1049B002B28
:10B750002ED10023134A137009B03CBC9046994681
:10B76000A246AB46F0BDDE693A1C002E00D021E7B0
:10B7700001250E4B01369D60002305960026984654
:10B78000151C069603E7C0468C210020A02100204E
:10B79000A1210020A4210020902100209821002038
:10B7A0009C210020A2210020FEFF7F00001001400C
:10B7B000002E62D0474B48493568CC58474B484E1D
:10B7C0001B683078E21A1202120A033290460028EF
:10B7D0005ED04246AA4200D22A1CA820D2181202E9
:10B7E0003D49130AC0003B4D0B504A591B1B121B0D
:10B7F0001202120A1B0203321B0A9A42A9D94B59A0
:10B800000B502F200138C046C046C046C046C04637
:10B81000C046C046C046C046C046C046C046F1D13C
:10B82000802180232F4A89025B00D15091E70023B9
:10B830009946049359E647460025002100244846CE
:10B84000002B13D01A6882421AD8DE68801A891831
:10B850001C60DF69002E07D0DD611D1C019A9E600F
:10B860008A181202120A5A603B1EEBD11E4B1F604F
:10B870000023039301330493B9E6FFF769FD68E7FA
:10B88000121A1A6003930123174904930F60AEE65E
:10B890008020D1274002BF00C851403FC851C0227C
:10B8A00080271048BF0252008750076001272F20D1
:10B8B0000F600138C046C046C046C046C046C046BC
:10B8C000C046C046C046C046C046C046F1D13770EB
:10B8D0007FE7C04604050000001001408C210020D5
:10B8E000AC21002000E100E090210020F0B54746A7
:10B8F00080B4374B1C68002C08D0002806D00723E2
:10B90000042905D8181C04BC9046F0BD0823F9E7AB
:10B910004369002BFAD00025437CA846012B2FD089
:10B92000EFF30583DB05DB0D1025002B2CD164190B
:10B930006378A5785E1CF6B2AD1B6F1EBD416D42EB
:10B940002E402578B5421DD05D00EB186568DB0000
:10B95000ED180423002DD5D0033B2B7068601D4BE0
:10B960001D48C358E960AB60434680212B618023AA
:10B970006A611A4A5B0049036670D1500023C1E72F
:10B980008846CDE70423BDE7103BDEB275B2002D3B
:10B9900013DBAD08114EC035AD00AD590326334061
:10B9A000DB00DD402B069B0FDBB20025012BBED058
:10B9B0000835032BBBD00835B9E70F23084D3340BA
:10B9C000AC46083B9B089B0063445D680323E6E7A5
:10B9D0009C210020040500000010014000E100E06F
:10B9E00018ED00E030B52E4A031C12680820002A2A
:10B9F0002ED0002B2CD05969002929D00021197490
:10BA0000EFF30581C905C90D1025002923D155196A
:10BA10006A78A978541CE4B2091B481E8141494246
:10BA20000C402978A14214D051008A186968D200CC
:10BA30008C4662440420002A0AD00221536011700F
:10BA4000802380210020174A49035B006C70D1508D
:10BA500030BD0420FCE71039CCB260B2002813DB03
:10BA60008008104CC0308000005903242140C900D8
:10BA7000C8400106890FC9B200250129C7D0083581
:10BA80000329C4D00835C2E70F2107482140844666
:10BA9000083989088900614448680321E6E7C046FF
:10BAA0009C21002000E100E018ED00E00023C0B27E
:10BAB00088724B727047C046F0B556464D464446B4
:10BAC0005F460023F0B485B001AD041C281C0E1C99
:10BAD0002B7000F0ADF9002E02D1E368002B0DD1E0
:10BAE000032398466379A279DBB2002701269342AB
:10BAF0002AD10023E360E368002B37D1287800F0D7
:10BB0000B7F905B03CBC90469946A246AB46F0BD9D
:10BB1000597931402970AF60EF709A793240520103
:10BB2000201C291C103000F0E7FD0028E9D0E36854
:10BB30001B68002B5BD1281C2B7000F079F963790E
:10BB4000A279DBB29342D4D021689A008C460133AB
:10BB500020796244DBB212680021984200D3191C9C
:10BB6000131C6171E360E368002BC7D0287800F0F4
:10BB70007FF92772227AE368D2B2D1008B469B68A4
:10BB80005B44597949086970196869601979A97025
:10BB900099790E42BCD059798C46314025D1013279
:10BBA0009146E068027B9145B4DA08208146E2685C
:10BBB000D94492684A445079624640085208824209
:10BBC000A8D14246E368986848440368AB600379AB
:10BBD000EB7043793340D31A2B70237A8279013387
:10BBE0003240DBB2520123729AE7012192E7E26808
:10BBF000E36851681B689847281C2F7000F018F9FB
:10BC00009DE7C046F0B5474680B4037884B00C1C6D
:10BC1000002B18D10B7ACA680133127BDBB20020EB
:10BC20009A4212D8E3681B68002B04D0E268E368EC
:10BC300051681B689847201C0121FFF73DFF04B0A5
:10BC400004BC9046F0BD0320ECE70B72087ACB6889
:10BC5000C0B29B68C6009B195A7901A952084A7064
:10BC60001A684A601A798A7001229D792A4229D07D
:10BC70005D79A846151C47463D4034D1E768013040
:10BC80003F7BB84220DA4746E068083680687F0884
:10BC9000801940794008874216D1E3689B689E1955
:10BCA00033688B603379CB7073791340181C03238E
:10BCB0001B1A0B70B3791A40237A52010133DBB29D
:10BCC000237209E05D79154000220D708A60CA7008
:10BCD0009B7901321A405201201C103000F00CFDFB
:10BCE00000289FD1ABE70125EEE7C046F0B5061C62
:10BCF0004746041C103680B49846171C301C0A4A6C
:10BD0000231C00F0DDFB051E09D1301C00F0C8FC2F
:10BD1000434665712360A57127716572E560281C33
:10BD200004BC9046F0BDC04605BC0100F0B54F46CE
:10BD30004646041CC0B41F1C002387B002AD281C5B
:10BD4000894690462B7000F073F8667AF6B2002EA2
:10BD500036D101232878637200F08AF8244B6C6096
:10BD600002934B46AB6043462B736B46D81DDE7186
:10BD700000F05EF8A3792279DBB29A422ED0627984
:10BD8000013A93422DD021689A008C466244156096
:10BD900001332179DBB20022994200D31A1C6B4691
:10BDA000A271D87900F064F8201C0021FFF784FE0E
:10BDB000002F0ED1637A002BFCD1A07AC0B203E031
:10BDC000287800F055F8112007B00CBC9046994631
:10BDD000F0BD637A002BF0D0B847E9E76279002A1A
:10BDE000CDD16B46D87900F043F81120ECE7C0467E
:10BDF000ADBA0100002300B585B001AA9060002112
:10BE000003481380536000F005F805B000BDC0463C
:10BE100001400000BFF34F8F034A044BDA60BFF3C9
:10BE20004F8FC046FDE7C0460400FA0500ED00E074
:10BE3000F0B5EFF3108172B60A4B5A68002A0DD1A3
:10BE400001248025084E5C607459084F3C401C60FA
:10BE500077510270002900D162B6F0BD0123037052
:10BE6000F8E7C046182B002000E100E0FC06FFBC0C
:10BE700010B5084B5A68002A0BD0002809D1EFF3FF
:10BE8000108272B604491C680C605860002A00D108
:10BE900062B610BD182B002000E100E00FB4F0B531
:10BEA00083B008AD80CD00260195002F0FDD04354D
:10BEB0002B1F1C6801952078002805D0013400F064
:10BEC0000BF820780028F9D10136BE42EFD103B03B
:10BED000F0BC08BC04B0184770B50D4D011C281CFF
:10BEE000FFF7A0F9041E01D0201C70BD00F0E6FE93
:10BEF0000028F9D1074E281C311CFFF7A7F90028AC
:10BF0000F2D1301C012100F07FFE041CECE7C0469A
:10BF1000B4210020B0210020F0B5002820DBFF274D
:10BF20001B4B03229C463B1C8408C026C0B2024027
:10BF3000D2009340A4006444B600A5599D438B01F0
:10BF40003B409340191C2943A1511F2318401E3B1D
:10BF50008340C022181C0E4B520098501860F0BD50
:10BF6000FF260C4A03249446321C0F23C0B204401F
:10BF7000E400A2400340083B9B089B006344DD694A
:10BF800095438A013240A240111C2943D961DCE764
:10BF900000E100E000ED00E0F0B544465F465646A3
:10BFA0004D46F0B49C4A87B013680024012B00D1A1
:10BFB000AEE09A4B1A68012A00D1B7E0984B1A6894
:10BFC000012A00D1C2E0974B1A68012A00D1CDE0C6
:10BFD0000022954B02921A68012A00D1D8E023076B
:10BFE0000BD0E30700D5DFE0A30700D5EBE0630744
:10BFF00000D5F6E0230700D502E1002C06DB07B0F0
:10C000003CBC90469946A246AB46F0BD00230127B2
:10C010000493C03399460126844D7F420023039345
:10C02000E023DB0000249846231C4033E95C4BB23C
:10C0300001332CD0C9B24B46081C98433B1CC3406B
:10C040001E4224D08B0901932B1820331B785BB23E
:10C050009B00EB589C46002B35D0331C83409A46FE
:10C06000019B032B35D0A023DB059B464346820072
:10C070005A44D3580592C022920213401B0C191C3B
:10C0800053469346029A1A4212D1032926D001340C
:10C09000042CC9D1039B002BB1D0A223A022DB002A
:10C0A000D205D358029A9A42A9D0049F0293B5E7C9
:10C0B0000229ECD1019B032B16D06346002BE6D05E
:10C0C0000199E047E3E7019B032BE0D1331C834058
:10C0D0009A465246049B13430493C4E7019B032BE7
:10C0E000EBD180239B029B4643460599CB589A4649
:10C0F00052464F4B134042468B508B585A461A4378
:10C10000131C42468B50039B0133DBB20393D4E7ED
:10C11000C1214848890041580B4200D149E73F4BB3
:10C1200014601A680134012A00D047E7C12241494E
:10C130009200895802220A4200D13FE7002119608B
:10C14000374B14431A68012A00D03CE7C122394911
:10C150009200895804220A4200D134E70021196074
:10C16000304B14431A68012A00D031E7C12231490B
:10C170009200895808220A4200D129E7002114437D
:10C1800000221960284B02921A68012A00D026E783
:10C1900000221A6080231B061C43A022A223D20582
:10C1A000DB00D35802931AE7A223224ADB00D058BF
:10C1B000D1581E4DC00489032B68C00E890F9847C3
:10C1C000A30700D413E71C4B1A4A184DD058D15876
:10C1D000C00489036B68C00E890F9847630700D4B9
:10C1E00008E7A323134ADB00D058D1580F4DC004F1
:10C1F0008903AB68C00E890F9847230700D4FCE67B
:10C200000C4A0E4B094DD058D158C0048903C00EBA
:10C21000890FEB689847F0E6006100400461004038
:10C22000086100400C6100407C610040C421002096
:10C23000FFFFFCFF00600040140500001C0500002B
:10C24000F0B54D4644465F465646F0B409AC2578F5
:10C250000AAC2478A4460C78002C17D11678B04686
:10C26000922676008759B346002F20D0331C243BFA
:10C27000FF3B845143610B70A8450FD00124201C63
:10C280003CBC90469946A246AB46F0BD92220023A4
:10C2900052008350083A8350143A835082235B0043
:10C2A000C258002AEAD000220024C250E7E78E26B6
:10C2B0007600B1468659B246002E0BD04E468751C5
:10C2C0005E468659002E23D05B46C750012343614A
:10C2D0000B70D1E7842464000759002FCCD0564658
:10C2E00006515C460459002C22D111788D42C3D9E5
:10C2F000A324E40004595C5413780133DBB21370B7
:10C300006A1E93421DD09D42B6D001230362B3E75B
:10C3100011788D4205D86346002B0FD00123C361ED
:10C32000ADE7595C094BC150137801331370A3E793
:10C3300001235A46865043610B709DE701234361F8
:10C340009AE7802302229B00C250DEE71C05000012
:10C35000F0B544465F4656464D46F0B4822483B05D
:10C360000192002264000A5120340A51083C0A510B
:10C37000143C0A51E23C0255033C0255012B16D0F5
:10C380008022012492008C5001220A620A60026815
:10C39000002A16D0484B8360826800207E33CA5042
:10C3A00003B03CBC90469946A246AB46F0BD802205
:10C3B000213C92008C5001220A620A600268002A25
:10C3C000E8D11D32FF329046143A9146043A922544
:10C3D0009246DE3A2327002693466D000093C25D05
:10C3E000002A1DD15C46045DA4464C59002C2AD17C
:10C3F00042468A58002A2ED042468C504A59002A7A
:10C400004CD15A46009B825C93424CD9019CA45C5F
:10C410002A4A8C505A465C46825C0132025516E02C
:10C4200042464E518E504A468E5052468A58002AF5
:10C43000D5D0822300225B00CA50E13BC35C002BB5
:10C440002AD00320ACE74A5101224A61C255009B21
:10C450006345C4D1E9E74C460C59002CF7D04C4653
:10C460000A514C59002CEED15A46009B825C9342F3
:10C47000EDD9A324E4000C59019B9C545B46C25C9B
:10C480000132D2B2C254009B5C1EA2420ED0934233
:10C49000DDD001220A62DAE7002081E701224C5157
:10C4A0004A61C255D3E701224A61D0E780220224C3
:10C4B00092008C50EDE7C046860200001C0500008B
:10C4C000F8B544465F464D465646F0B40479844676
:10C4D000A0006D4F80460019C000381820308578C4
:10C4E0000820002D05D03CBC90469946A246AB469C
:10C4F000F8BD002900D1C3E040460019C0003A5001
:10C500003A18536000239360203253711371A023B3
:10C510000A685E48C132FF32DB059200D0504A689B
:10C52000C132FF329200D0500120051C0A689540AC
:10C53000A122D2009D504D68A84098500868544DE3
:10C54000C130FF308000C5504868C130FF308000E6
:10C55000C55004200138C046C046C046C046C0464B
:10C56000C046C046C046C046C046C046C046F1D1DF
:10C57000A220C000824647480026012583469146F6
:10C58000524648689A58C240154200D075E02A1CAD
:10C590000868824058461A5004200138C046C046F8
:10C5A000C046C046C046C046C046C046C046C0465B
:10C5B000C046C046F1D12A1C0868824048461A503D
:10C5C00004200138C046C046C046C046C046C046EA
:10C5D000C046C046C046C046C046C046F1D101363E
:10C5E000092ECDD1486801231A1C8240101CA022BC
:10C5F000284DD205505104200138C046C046C046DF
:10C60000C046C046C046C046C046C046C046C046FA
:10C61000C046F1D148688340A120C0001350A02239
:10C620000B681A48C133FF33D2059B0098504B6802
:10C63000C133FF339B0098506346A1221B680D68ED
:10C64000D20048689D50134A98508868124A985002
:10C6500043461B19DB00FB58002B06D063461868C5
:10C66000097B000B40B2FFF757FC01234444E40070
:10C670003F192037BB70002035E7002EB3D1CEE73D
:10C6800006482101411837E70C2200200C06000063
:10C690000D0600000C0500002405000020340200F7
:10C6A000A022037901680520D20088509A00D3188F
:10C6B000034ADB00D318022220339A707047C04629
:10C6C0000C22002003790268C22101208900404227
:10C6D000505080208000115800211150A020C0002F
:10C6E00011509A00D318034ADB00D31801222033DB
:10C6F0009A7070470C220020F0B54D465F465646B2
:10C700004446F0B485B00579930707D0062005B0FC
:10C710003CBC90469946A246AB46F0BD0668C22393
:10C7200001209B004042F050AB00581998465A4BEC
:10C73000C0009C466044041C20342379A346002B8F
:10C7400005D0C12382689B00F2501120DFE701274A
:10C750009308BC469F430823134027710393D5D108
:10C7600082619146021C0F1C02910C321ACF1AC230
:10C770005946029B9A780A705A68C2615A78924662
:10C78000B1225746D200B7501A78012A77D0002A32
:10C790004BD14B4664465A091440A4463E4A434690
:10C7A00091465B19DB004B44203302995C704A6868
:10C7B00092468A788221914600229A71DA7001238A
:10C7C0004900725020317250083972501439725039
:10C7D000F831725033622632B360815C494528D209
:10C7E0005346595C2D4BF150835C013383544346CF
:10C7F000294A5B19DB00D258002A21D0264A0020A2
:10C800009446274A63449A609A68C1239B00F25079
:10C810004544214BED005B59002B00D077E71E4AC1
:10C820009446654420352B7171E7012301249C4611
:10C83000B4E76246002A01D0F361D8E77361D6E716
:10C84000154A203394466344DA1C063393461F1C72
:10C850004B4601940093301C59463A1C5346FFF74F
:10C86000EFFC0028F4D143460B4A5B199446DB00E9
:10C8700063442033DB78002B0BD00330C8E76A46D3
:10C88000127B029B4A705A68311C9B78FFF760FD4F
:10C89000BEE70020BCE7C0460C2200201C050000BB
:10C8A00086020000F0B544464D465F465646F0B459
:10C8B000B64B2321DA69585C904620229C5C0132F9
:10C8C0009A5C89B09146002816D12622922594467A
:10C8D0009F5CAF4A6D005659AB46002E37D0505181
:10C8E000012050615854BC420FD009B03CBC904666
:10C8F0009946A246AB46F0BD92200021A44A4000D2
:10C90000115008381150143811508222A049520099
:10C9100088580028E9D0002088502320195C00297D
:10C9200026D11E7BB21E012A58D9191C05AA0C312A
:10C9300070C970C2002204A80270242200219954F8
:10C940009A695207D1D459681B689847CDE78E2061
:10C9500040001558AA46002D1ED0165058461058B3
:10C9600000286FD058461650012050615854BAE73D
:10C97000191C05AA0C3170C970C28649844C04A8E0
:10C98000625862500221114203D15207D5D501707D
:10C99000D3E701220270D0E7842040001658002E11
:10C9A000A1D0554615505846105800285AD1BC42BF
:10C9B00099D9A3214046C9005158C15561466046E6
:10C9C000595C0131C9B21954601E814250D08C4269
:10C9D00000D188E701216E4A116284E7DA691C6997
:10C9E000A242A2D15A6901279046DA612022DC7B5B
:10C9F0009C549A6952093A40914621224D469D54D1
:10CA0000032E3AD08226624A760091512036915107
:10CA1000083E9151143E9151E23E99551954012C12
:10CA200050D08021890057500121594A116211606C
:10CA3000196800294BD0584999609968C1239B0017
:10CA4000D15052E7BC4205D8494600290DD00121FA
:10CA5000D16162E74146C85D5049505061467A1C39
:10CA60005A5440E750465D4639E7012151613AE7A3
:10CA70008021022089005050ACE7454EE332B1508E
:10CA80002032B150083AB150143AB150F832B15096
:10CA9000DB3AFF3A9954195494463762B760002C38
:10CAA00026D04246107862463C4970509F541A681E
:10CAB000002A24D0384A9A609968C123344A9B00DE
:10CAC000D15012E78021022089005050ACE71F1C92
:10CAD00026331E1C454623370023009401932C481F
:10CAE000391C321C2B1CFFF7ABFB0028F4D1FCE6F1
:10CAF0004A46002A01D0F761D9E77761D7E792204B
:10CB00000132232700269346214940000394DA5D31
:10CB10009446002A2BD10C58263292469A5C002C5F
:10CB20002CD18E256D004D59AC46002D38D08E2568
:10CB30006D004C510D58002D21D1039C944251D9C8
:10CB40004446A45CA4466546144C0D515546541CFD
:10CB50005C55039C9442DAD18222520094468A5852
:10CB6000002AD4D000226146094B5A50BDE68E22DD
:10CB700052000E508E50143A8E50EDE764460C5021
:10CB80005C464C615C46DC55E3E7C0460C22002065
:10CB900000300040C4040000860200001C050000B4
:10CBA000842464000D59002DD3D065460D510C58D6
:10CBB000002CE3D1039C9442CBD9A3244546E40046
:10CBC0000C59AC54544655461C5D0134E4B25C55D6
:10CBD000039D013DAC420FD0039DA542B9D05C46F8
:10CBE0000C62B6E74C46002C03D00122054BDA61FB
:10CBF0007BE65C464C61ACE780240225A4000D5125
:10CC0000EDE7C04600300040F0B5264A041C937D95
:10CC10001120002B00D0F0BD012591752248234939
:10CC2000938294600B6005600B60938AE05C938A4A
:10CC30001F4C01339BB293821E4BE050506800287A
:10CC400001D00020E7E70027261C1D1C0130FF3023
:10CC5000947D938AA34203D312E0938A834202D045
:10CC60000B68002BF9D0938A8342F2D00F60938A2D
:10CC70009468E45C938A01339BB293827451E7E732
:10CC80008023918A5B0099420AD008490B68002BE7
:10CC9000FCD001210020084B196000239375BAE7EE
:10CCA0000F20FAE734220020082000401C21004019
:10CCB000002000401C0500000C200040024B987D25
:10CCC000431E9841C0B2704734220020C12210B5E3
:10CCD000604B92009A5884B092054DD55E4A116817
:10CCE000002949D0002111608121C22289009200CF
:10CCF00099505A4B9A7E002A02D10121584A11605C
:10CD0000022269460A7090215248C9004258425096
:10CD100069460392DA7D68460A72DA6819680192F8
:10CD20000022DA751A765B6898474E4A1368002B22
:10CD300010D04A4B988A997D81424FD900211160C9
:10CD40009A8A9968895C9A8A013292B29A82464B91
:10CD5000404AD150454B1A68002A0BD000221A6075
:10CD60003E4B9A7E002A02D001213A4A1160DA7DB8
:10CD7000002A42D104B010BDC123364A9B00D358CB
:10CD80005B07D2D53A490B68002BCED0334BD87D08
:10CD900000283FD10860A321C90052585A7ED97D8E
:10CDA0009142C2D11A7E002A41D19A7E002A02D134
:10CDB00001212B4A11608120C22226498000920065
:10CDC0008850002268460121DA755A7E017002728D
:10CDD000DA68196801925B689847A6E7002010603E
:10CDE0000029B7D06A46107011729A689875196850
:10CDF00001925B6868469847ACE7002268460121CB
:10CE0000DA755A7E01700272DA68196801925B68FD
:10CE10009847AFE700200860A320C000597E125851
:10CE2000D86842545A7E0132D2B25A76B6E7DA75E1
:10CE30001A69D968DA6000226C46587E1A765A76EA
:10CE40000132207201912270196868465B68984728
:10CE50006BE7C0460020004024210040342200201F
:10CE6000042000401C2100401C050000442100401B
:10CE70000821004029DF704728DF704730B583B0B4
:10CE8000002806D0112806D108230F4A11680B4349
:10CE9000136003B030BD021C0C4801788B005B1896
:10CEA0009B00C518281CE9686B694C006418297937
:10CEB000074DA4002D680C300095064D6459A0471D
:10CEC0000422054B1A70E4E7402300205022002082
:10CED0004C2300202423002045230020F0B55F468A
:10CEE0004D4644465646F0B45E4F85B03C785E4DA4
:10CEF000012C00D188E0002C00D16DE0022C16D06E
:10CF0000032C0DD1594B1868FFF7B6FF021E07D04E
:10CF1000112800D080E00823554A11680B431360A4
:10CF200005B03CBC90469946A246AB46F0BD504B7E
:10CF300099461B6803932B789E00F3189B00EE180C
:10CF40003369984680235B05196940460904090C3A
:10CF50009B4604F079FD454B824618605B46196993
:10CF60004346581EF3880904C018090C04F06CFDF0
:10CF700082454CD00323039C9C434B461C603D4B95
:10CF80001B68002B02D10233234262D000223A4BAD
:10CF90001A703A4B5869431C54D080235B051969B9
:10CFA0000904090C04F050FD031C8022520510698D
:10CFB00011690004013B000C09045843090C04F0FA
:10CFC00043FDFFF759FF021EAAD0112824D10823E0
:10CFD0001C434B461C60A3E7294B1C60294B1C607B
:10CFE0006B78002B9CD02B789A00D3189B00ED18FF
:10CFF000EA88254B1A602B79032B27D0042B25D0E8
:10D00000012B00D08CE73B7000F000FC88E7012387
:10D01000039A9A431443B0E72B789800C018800015
:10D020002E18301C184DF3682D685C00E418317917
:10D0300073690095154DA4000C306459A047042372
:10D040003B706DE780235B055B69AEE700F020F87D
:10D0500066E7094A50461370FFF70EFFFFF70EFF11
:10D060005EE7C046452300205022002058230020C0
:10D0700040230020542300204423002000100010EF
:10D08000502300201C2300204C23002024230020B8
:10D09000F0B55F4656464D464446F0B45B4B5C489F
:10D0A0001A78802791008A1892009B18DD681E6903
:10D0B0006A0052199200821814895089526860439C
:10D0C00080469044DA881B89141C9946514B92463D
:10D0D0009B4600235A467F05396983B009044C44B6
:10D0E0001360090C301CA41904F034FD002924D16C
:10D0F0003B699BB29A4537D044456CD0032D33D061
:10D10000301C3969484489B204F024FD424B890837
:10D1100019603969201C0904090C04F01BFD002961
:10D1200032D102223D4B1A70FFF7D8FE03B03CBC4F
:10D1300090469946A246AB46F0BD032D14D0301C54
:10D14000396948440904090C04F004FD324B89088C
:10D15000196039694445E4D00904090C201C04F025
:10D16000F9FC0029DDD00FE080235B051969301C34
:10D170000904090C04F068FC0322294B1860274BB2
:10D180001A70FFF7ABFED1E780256D0529692B6981
:10D190006A4699464346D380D08889B204F054FC4D
:10D1A0006A464B46A6B2D380071CD188301C04F0D7
:10D1B0004BFCBFB280B287421DD02C692969301C5C
:10D1C00089B204F0C7FC5B462404240C89B2641ABB
:10D1D000A4081C60A5E74B46002BC5D0032DC3D087
:10D1E000301C3969484489B204F0B4FC0A4B890800
:10D1F00019603B6995E7434624041B041A0C240C70
:10D20000131B5A469B0813608BE7C0465022002030
:10D210002423002020230020542300204523002025
:10D2200058230020F8B546464F46C0B41D4D08AC03
:10D2300024886E78A44604240A2E2DD02C78A0468B
:10D24000A419092C00DD0A3C14277C432C196261C7
:10D25000221C20710C32B94681C981C2E380634629
:10D2600023810024104B01361A786E70A24213D12C
:10D2700042464F465743ED190C4AE98811602A7916
:10D28000032A07D0042A05D0012A05D11A70FFF716
:10D2900025FE01E0FFF7FCFE201C0CBC90469946E1
:10D2A000F8BDC04650220020452300204C2300201A
:10D2B000082170B50C1C244A82B013681C4009D0A8
:10D2C0008B431360214B224A1B789B009B58984745
:10D2D00002B070BD1F4D2B789800C3189B00EE184C
:10D2E000317904292AD0F268736950008218301C01
:10D2F000194E920036680C300096184E965900224E
:10D30000B04702202A7893009B189B00EB181C71F1
:10D31000DC80D8601C615C611C816B780132013B50
:10D32000D2B26B700A2A06D02A7000220C4B1A70F7
:10D33000FFF7D4FDCCE700232B70F6E70122084B62
:10D340001A70FFF7CBFDC3E74023002044230020E1
:10D3500044340200502200204C23002024230020CB
:10D360004523002030B5244B83B05869431C3ED080
:10D3700080235B0519690904090C04F065FB041C92
:10D3800080235B051869196900041A69000C631E83
:10D3900058431A4B09041B68090C92B2920859436E
:10D3A000FFF768FD021E06D0112806D10823144A93
:10D3B00011680B43136003B030BD12490B7898001D
:10D3C000C01880000D18281CEB6829795C00E4184F
:10D3D0006B690D4DA4002D680C3000950B4D645900
:10D3E000A04704220A4B1A70FFF778FDE3E7802379
:10D3F0005B055C69C4E7C04600100010582300209C
:10D4000040230020502200204C2300202423002011
:10D4100045230020802230B5520514692149240497
:10D42000230C0C6883B0013C5C431F4B5869431CC0
:10D4300035D011690904090C04F006FB80235B0553
:10D4400019691A4B09040138090C41431A68201C58
:10D45000FFF710FD021E06D0112806D10823144A3A
:10D4600011680B43136003B030BD12490B7898006C
:10D47000C01880000D18281CEB6829795C00E4189E
:10D480006B690D4DA4002D680C3000950B4D64594F
:10D49000A04704220A4B1A70FFF720FDE3E750690A
:10D4A000CCE7C04658230020001000105423002071
:10D4B00040230020502200204C2300202423002061
:10D4C00045230020082330B51E4D83B02C6823422D
:10D4D00014D1A30702D501231C432C6002221A4B4E
:10D4E0001A701A4B1868FFF7C7FC021E04D01128E7
:10D4F0000DD108231C432C6003B030BD9C43124B5C
:10D50000134A1B782C609B009B589847F4E71149FD
:10D510000B789800C01880000D18281CEB6829793A
:10D520005C00E4186B690C4DA4002D680C3000956C
:10D530000A4D6459A0470422094B1A70FFF7CEFC2C
:10D54000DAE7C0464023002044230020582300206F
:10D5500044340200502200204C23002024230020C9
:10D5600045230020F0B58027274C7F0523783969B3
:10D570009A00D3189B00E3181A89DD881B69AD183F
:10D58000ED18090483B0090C281C04F0E3FA1F4BC2
:10D590000E1C5869431C35D039690904090C04F084
:10D5A00053FA80235B05196901380904090C4143CA
:10D5B000174B89191A68281CFFF75CFC021E06D05D
:10D5C000112806D10823134A11680B43136003B0D6
:10D5D000F0BD23789800C01880002618301C0E4C2F
:10D5E000F36824685D003179ED18736900940B4C81
:10D5F000AD000C302C59A0470422094B1A70FFF7DC
:10D600006DFCE4E77869CCE75022002000100010A0
:10D6100020230020402300204C230020242300202E
:10D620004523002030B5154B83B01868FFF724FC64
:10D63000021E06D0112806D10823114A11680B4397
:10D64000136003B030BD0F490B789800C0188000FC
:10D650000D18281CEB6829795C00E4186B690A4DE9
:10D66000A4002D680C300095084D6459A047042291
:10D67000074B1A70FFF732FCE3E7C046582300203F
:10D6800040230020502200204C230020242300208F
:10D6900045230020082370B52A4D82B02C68234210
:10D6A00009D09C43284B294A1B782C609B009B582F
:10D6B000984702B070BD0122234B1A70244B586961
:10D6C000431C3BD080235B0519690904090C04F055
:10D6D000BBF9061C80235B051869196900041A69E7
:10D6E000000C731E58431B4B09041B68090C92B2B3
:10D6F00092085943FFF7BEFB021EDAD0112803D16E
:10D7000008231C432C60D4E713490B789800C018F9
:10D7100080000D18281CEB6829795C00E4186B69FF
:10D720000E4DA4002D680C3000950D4D6459A04796
:10D7300004220C4B1A70FFF7D1FBBAE780235B057C
:10D740005E69C7E7402300204423002044340200E0
:10D750000010001058230020502200204C230020ED
:10D76000242300204523002030B5224B83B0586984
:10D77000431C3AD080235B0519690904090C04F0A5
:10D7800063F9031C80225205106911690004013BF2
:10D79000000C09045843090C04F056F9FFF76CFB20
:10D7A000021E06D0112806D10823134A11680B4324
:10D7B000136003B030BD11490B789800C018800089
:10D7C0000D18281CEB6829795C00E4186B690C4D76
:10D7D000A4002D680C3000950A4D6459A04704221E
:10D7E000094B1A70FFF77AFBE3E780235B055B695F
:10D7F000C8E7C0460010001040230020502200203F
:10D800004C2300202423002045230020F0B580274E
:10D81000404D7F052C783969A60033199B00EB1821
:10D82000DA8889B283B08A4218D8196918898C4677
:10D83000920860445969FFF71DFB021E06D01128AB
:10D840002DD10823344A11680B4313603419A40006
:10D850002C19E288314B1A6003B0F0BD19693869A0
:10D860008C460004000C121A18893C6959696044FE
:10D8700080188918A2B29208FFF7FCFA021E06D09F
:10D88000112827D10823244A11680B4313608023F1
:10D890005B051B69214A1B041B0C1360DCE72B781A
:10D8A0009800C01880002918CB68081C5F00FF187A
:10D8B0000B79BF009C464B6919490C3009680091EF
:10D8C00018497F586146B8470422174B1A70FFF772
:10D8D00005FBBBE72B789800C01880002E18301C81
:10D8E0000F4DF3682D685C003179E4187369009579
:10D8F0000C4DA4000C306459A04704220A4B1A7046
:10D90000FFF7ECFA80235B051B69044A1B041B0C20
:10D910001360A1E750220020402300201C23002098
:10D920004C23002024230020452300200823F0B5A9
:10D930004D4644465F4656461A1CF0B4774D85B0B6
:10D940002C68224091465FD1754F3E78B300039317
:10D950009B199B00FB181A69511EDA881B898A18CB
:10D96000D318029380235B059B4619696D4B1B6896
:10D970009846002B57D16C4B1B689A4680235B0559
:10D98000196902980904090C04F05EF8824500D276
:10D9900085E0434600D17AE0002B00D079E0039B7C
:10D9A0009C466644B600BC192179042900D1AFE039
:10D9B000201CE3680C305A00D21863695B4C92005B
:10D9C000246800945A4C14590022A0474146022072
:10D9D0003A7893009B189B00FB181971D860414658
:10D9E0004046D9801861586118817B780132013B2B
:10D9F000D2B27B700A2A00D17BE03A7000224D4BF4
:10DA00001A70FFF76BFA07E09C434B4B4B4A1B78AD
:10DA10002C609B009B58984705B03CBC90469946AB
:10DA2000A246AB46F0BD404B09041B68090C0298A6
:10DA30009A4604F009F85045A0D14A46404B1A6076
:10DA400001234A4623432B603B4B1A703D4B5869D8
:10DA5000431C51D05B4619690904090C03F0F4FF1B
:10DA6000031C80225205106911690004013B000C5F
:10DA700009045843090C03F0E7FFFFF7FDF9021E04
:10DA8000CAD011283BD109231C432C60C4E7002BCA
:10DA900005D00322284B1A70FFF764FDBCE7002273
:10DAA000274B50461A60244B02321A70FFF7E4F9F4
:10DAB000021EB1D0112818D03B789900CB189B00DA
:10DAC000FD18E9684C006418281C29796B69174D0A
:10DAD000A4002D680C300095154D6459A047042210
:10DAE000144B1A70FFF7FAF996E708231C432C60D1
:10DAF00092E700233B7081E75B465B69B1E73B78C7
:10DB00009800C01880003D18EB685C00E418DBE763
:10DB10000122084B1A70FFF7E1F97DE7402300204E
:10DB20005022002020230020582300204C230020D6
:10DB300024230020452300204423002044340200F5
:10DB40005423002000100010F0B54E4657464546BD
:10DB50000823E0B48C4E82B03468234200D093E0B6
:10DB60008A4B1A68571C1F60894B1D68002D50D1C5
:10DB7000884B802299461B7852059D00ED18AB001A
:10DB8000984608234D469A464544AA4453469B6806
:10DB90001169581EEB880904C0182B89090CC0189C
:10DBA00003F052FF874200D282E07B4B00D17BE042
:10DBB0001F68002F00D19CE001231A1C224000D0D6
:10DBC0008DE023433360754B1A70754B5869431CC5
:10DBD00000D1BEE080235B0519690904090C03F03C
:10DBE00033FF031C80225205106911690004013BB8
:10DBF000000C09045843090C03F026FFFFF73CF919
:10DC0000021E49D0112800D0A7E009231C4334602C
:10DC100042E00421614B197080235B051F693F04BA
:10DC20003F0C57435E4A5069421C3BD019690904B6
:10DC3000090C03F009FF80235B0519690138090409
:10DC4000090C41432A1C381CFFF714F9021E23D08B
:10DC500011284AD04F4801788B005B189B00C518EB
:10DC6000281CE9684C006418A40029796B694D4DA3
:10DC70000C302D6800954C4D6459A04704224B4B45
:10DC80001A70FFF72BF907E09C43444B484A1B7876
:10DC900034609B009B58984702B01CBC9046994644
:10DCA000A246F0BD5869C6E71B68002B00D083E789
:10DCB00002223A4B381C1A70FFF7DEF8021EEBD036
:10DCC000112812D04B461B789900CB1849469B006F
:10DCD000CD18E968281C4C006418A400C5E703228D
:10DCE0002E4B1A70FFF73EFCD6E708231C43346026
:10DCF000D2E7297904293DD053464046294C5B6838
:10DD000024685A00D2186B690094274C920048444A
:10DD10000C3014590022A0474B4602201A7849467D
:10DD200093009B189B004B441F71DF80D8601F61DC
:10DD30005F611F814B465B780132013BD2B24B7071
:10DD40000A2A1DD00A700022184B1A70FFF7C6F875
:10DD5000A2E780235B055B6944E74B461B7898008C
:10DD6000C0184B4680001D18EB68281C5C00E418A6
:10DD7000A4007AE701220D4B1A70FFF7AFF88BE78A
:10DD800000230B70DFE7C04640230020582300200B
:10DD90005423002050220020202300204423002070
:10DDA000001000104C2300202423002045230020D5
:10DDB0004434020070B5274C82B023789800C01814
:10DDC00080002518281CEB6829795A00D2186B6945
:10DDD000214D92002E680C300096204E965900225C
:10DDE000B04700210226227893009B189B00E3187D
:10DDF0001971D980DE601961596119816378013226
:10DE0000013BDBB2D2B263700A2A0BD02270002130
:10DE1000134E14483160144E01703160002B05D14F
:10DE200002B070BD002222700022F0E793009A1821
:10DE30009200A418E3882B602379032B07D0042BCE
:10DE400005D0012BECD10370FFF748F8E8E7FFF7A6
:10DE50001FF9E5E7502200204C2300202423002056
:10DE600050230020452300201C230020F0B5474606
:10DE700080B4684D04262B7882B01A1CB24313D0AC
:10DE8000041E022C14D003280ED1082062490A680F
:10DE9000104257D0022B4ED0032B01D0012B03D1BF
:10DEA00082430A60FFF71AF802B004BC9046F0BD46
:10DEB000022B40D0032B54D0012BF5D10821564A18
:10DEC0001368194278D1554F55493B780E689A002E
:10DED000D3189B00FA18D1888E1BB6B2D680002EBC
:10DEE0006FD1D1681379480041189846101C5369C6
:10DEF0004C4A890012680C3000924B4A8A584146BD
:10DF000094460022E0473A7893009B189B00FB1848
:10DF10001E71DE80DC601E615E611E817B780132D5
:10DF2000013BD2B27B700A2A67D03A7000232B7073
:10DF3000FEF7D4FFB8E73D4B3D4A1B789B009B584A
:10DF40009847B1E73B490A6801320A60032A3BD08F
:10DF5000022BA7D1354B384A1B789B009B5898471A
:10DF6000A2E708212C4A1368194225D1334B2B4EC6
:10DF70001A683478571C1F6080235B051969A30059
:10DF800098461B199B00F3181A690904501EDA8879
:10DF90001B898018C018090C03F056FD874200D277
:10DFA00080E731D0231C43449B00F3181B79042BDA
:10DFB00025D0FFF7FFFE77E78B431360FEF78EFF58
:10DFC00072E7FFF723FC6FE71448027893009B1871
:10DFD0009B00C418201CE268636951008A182179EB
:10DFE000104C920024680C3000940F4C14590D22F0
:10DFF000A0472E70FEF772FF56E73E7096E70123AA
:10E000002B70FEF76BFF4FE70D4B1B68002BC9D140
:10E0100048E7C0464523002040230020502200202E
:10E020001C2300204C230020242300204423002014
:10E0300030340200502300204434020058230020D2
:10E040002023002010B500202C2400220221484B60
:10E0500018551434185502341A5302341A53103414
:10E06000185502341A530234D9601876196259636C
:10E070009964D9651A705A701A71DA801A615A61F6
:10E080001A815A835A629A629A83DA859A63DA63AA
:10E090001A86DA641A651A665A661A5310341855C5
:10E0A00002341A5302341A531034185502341A53D6
:10E0B0000634195104341A5104341A510C3C1A53C1
:10E0C0001034185502341A530634195104341A51B5
:10E0D00004341A510C3C1A531034185502341A5394
:10E0E0000634195104341A5104341A510C3C1A5391
:10E0F00010341855BA201A52063019501967C23117
:10E100005A5004315A500C395A525A679A67194B6F
:10E110001A80194B5869431C25D080235B05196967
:10E120000904090C03F090FC80235B051B6903388C
:10E130001B041B0C5843114B002118600023104A8C
:10E14000002013600F4A136013815381D3609382C0
:10E15000D3820D4A11700D4A13600D4A13600422D8
:10E160000C4B1A6010BD80235B055869DCE7C04684
:10E17000502200203C2300200010001048230020E3
:10E180005823002024230020452300205023002072
:10E190001C23002040230020F0B557464E4645463C
:10E1A000E0B4344B1A680823520705D4181C1CBC71
:10E1B00090469946A246F0BD002857D0002955D078
:10E1C0000368002B52D080277F053A69868892B277
:10E1D00007239642EAD80F2EE8D9C288002AE5D054
:10E1E000254B724399461B68041C9846234B4244B6
:10E1F00058690D1C9246431C3AD039690904090C30
:10E2000003F022FC80225205136901381B041B0C09
:10E21000584307238245C9D8B107C7D1184F033BDC
:10E220003E88022EC2D043466B600C232E604546CA
:10E23000734314480136C1184D6025681D50A588E8
:10E240000D81E08848816843136911699BB21469A4
:10E25000C018013889B2A4B203F086FC231C4A46D8
:10E260004343434413603E8000239FE70E239DE712
:10E270007869C7E7402300204823002000100010E1
:10E280003C23002024230020F0B5134B1C680823F6
:10E29000640701D4181CF0BD00281BD0002A19D037
:10E2A0000468013B012CF5D865000C4E2D19AD001A
:10E2B000AF59002FEED075192E89406871430918A7
:10E2C00068896D68704340198142E3D214605160DF
:10E2D0000023DFE70E23DDE7402300202423002076
:10E2E000F0B5474680B4204C051C246882B0082055
:10E2F000640703D402B004BC9046F0BD002930D0BE
:10E30000002D2ED02C680138012CF3D867003C1961
:10E31000164EA400A759002FECD06F683419BC46E4
:10E3200026896789B04677436668BC19A445E1D25F
:10E33000002ADFD09045DDD3D418A045DADB0930C0
:10E340008C07D7D103242342D4D166462642D1D1AB
:10E35000181C131C00900A1C0120291CFEF762FFE8
:10E36000C8E70E20C6E7C046402300202423002033
:10E37000F0B5474680B4204C051C246882B00820C4
:10E38000640703D402B004BC9046F0BD002930D02D
:10E39000002D2ED02C680138012CF3D867003C19D1
:10E3A000164EA400A759002FECD06F683419BC4654
:10E3B00026896789B04677436668BC19A445E1D2CF
:10E3C000002ADFD09045DDD3D418A045DADB093030
:10E3D0008C07D7D103242342D4D166462642D1D11B
:10E3E000181C131C00900A1C0420291CFEF71AFF9D
:10E3F000C8E70E20C6E7C0464023002024230020A3
:10E40000F0B5454657464E46E0B4284C051C2468F6
:10E4100082B00820640705D402B01CBC904699461F
:10E42000A246F0BD00293FD0002D3DD00C68013838
:10E43000012CF1D867001E4E3C19A400B246365993
:10E44000002EE9D04E6854446789B4462689B14607
:10E450007E436768B0463C1C4444A445DCD2002A95
:10E46000DAD09145D8D3D418A145D5DB0930AC0713
:10E47000D2D103242342CFD166463440CCD1884642
:10E480006344191C281C171C04F0A9FF42460C23E6
:10E4900012680097534352464046D6580221221C28
:10E4A0002B1CB047201CB7E70E20B5E74023002007
:10E4B00024230020F0B54F464646C0B4224B83B01B
:10E4C0001B6808245B0705D4201C03B00CBC9046D5
:10E4D0009946F0BD002834D00368013C012BF3D8E5
:10E4E0005D00EB18194A9B009D58002DECD0D31805
:10E4F0001F895D895A687D434668AD18AE42E3D2F4
:10E500000934B307E0D188468146391CB01A03F0BC
:10E5100021FB093C0029D7D14046391C03F01AFBE6
:10E5200089B20029D0D14346002BCDD04644B54214
:10E53000CAD30022032000924946FEF773FE041C52
:10E54000C2E70E24C0E7C046402300202423002059
:10E55000074B1A680823520701D4181C704700287B
:10E5600004D0044B5B7803600023F6E70E23F4E746
:10E570004023002050220020031C0720032B00D939
:10E580007047012A13D0012917D0002908D0022989
:10E5900019D15800C3180D48C3185A700020EFE76E
:10E5A0005800C3180948C3189A700020E8E70022F1
:10E5B0000129E8D11A1C0D32D2B258000349C31800
:10E5C0005A540020DCE70720DAE7C0465C2300202D
:10E5D00010B50388102B08D0112B05D1294A1368D8
:10E5E000013B1360002B07D010BD264C2368002B85
:10E5F00011D001332360F7E7002002210122FFF749
:10E60000BBFF00282BD0072829D01F4B1B68002BED
:10E61000EAD09847E8E7002000210122FFF7ACFF8D
:10E62000002808D0072806D0174B1B68002B00D005
:10E6300098472368DDE7012002210722FFF79CFFAE
:10E64000002801D00728EFD1002002210422FFF783
:10E6500093FF0028EDD00728E6D12368C9E7012001
:10E6600002210722FFF788FF002801D00728CCD11C
:10E67000002000210A22FFF77FFF0028B4D00728DE
:10E68000C3D1B1E76C2300206823002071DF7047FD
:10E6900076DF70477ADF70477CDF704747DF70476F
:10E6A00048DF7047002070477047C04610B5041C13
:10E6B000FFF7DCFB201C00F069FC10BD38B5041C22
:10E6C00002F0BCFC211C184800F08EFD201C02F05A
:10E6D000B9F8201CFFF77CFF2388112B19D011D922
:10E6E0003A2B01D0552B09D101201049FDF7D6FB5B
:10E6F000A0881321FFF7CCFF051E0FD1201C00F0CE
:10E70000EBFB38BD102BF9D101200949FDF7C6FB01
:10E71000F4E701200749FDF7C1FBEFE7FDF76AFBCE
:10E72000281CFDF767FBE9E73C2400208C3402003D
:10E730006C3402007C340200F0B556464D46444627
:10E740005F46F0B4C74D9DB00EAC231C2A1C43CAD3
:10E7500043C3C54E1268301C1A60211C0522C34BEE
:10E76000FDF7C4FA002800D078E1291C05AF10316C
:10E770000422381C04F033FE381CBD494822002313
:10E7800003F0A2F8002800D065E100200121221C3E
:10E7900003F004F9002800D05AE10023B548238093
:10E7A00003F014F9002800D04FE1201C03F018F901
:10E7B000002800D046E1B04803F0C4F8002800D09B
:10E7C0003DE1AE4803F0C8F8002800D034E1012351
:10E7D0003B70FFF737FC002800D02AE1381C02F01C
:10E7E00029FB002800D021E13D236B44181C0021A7
:10E7F0000522FCF70DFD01236279A1481A4381230C
:10E800001A40302313437F22134063710723A371FF
:10E810000933E3719B4B7A3A0E93012323713C3306
:10E820006B44191C04F0DBFD9748211C02F0A0FB8F
:10E83000002800D0F7E00120FFF730FF002800D0CB
:10E84000EEE008200A21914AFCF71EFD002800D0C6
:10E85000E3E00F2101223B788D4D8B4313431022BF
:10E860000B401343281C3B7004F0C2FD291C82B2EC
:10E87000381CFFF711FF002800D0CBE00822201C35
:10E880000021FCF7C5FCC822C82392006280002248
:10E890005B00201C2380A280E380FFF7FBFE0028A2
:10E8A00000D0B4E003AD281CFFF7F0FE002800D034
:10E8B000AAE0784B00219A4652466B78201C1370D0
:10E8C000AB785370EB7893702B790025D37015716A
:10E8D00055713822FCF79CFC6F4A02239046812236
:10E8E000414652000A804246237004339380E3700D
:10E8F0000123FD603B73C8235146DB0091606262D7
:10E900003B61FB617D60BD607D61BD613D623A1C24
:10E91000624B0095201C0021059500F0D7F8424677
:10E920005F4B5A6200286CD1032000F073F9002875
:10E9300064D15C4B371C99465B4B5C4D9846E32396
:10E940009B461037FCF7C6FC381CFDF7BBFEFFF7F3
:10E95000A7FE002801D0FDF74DFA381CFDF7A0FEF8
:10E960005B4680222B70012362712371A371211CED
:10E970007F3A0023301C2560FDF7D8F96B1C23601B
:10E98000022323717F33637100230122211C301C79
:10E99000A371FDF7CBF96878AB780002184303F058
:10E9A000BDFC04F017FB424A424B03F0FFFC00227F
:10E9B000414B03F0FBFC04F061FB04F00BFB3F4B0D
:10E9C0003F4A03F08DFF04F059FB3E4903F0D6F9AE
:10E9D00003F0BCF94B4680B2188043461B88834243
:10E9E000B0D05246030A507100212D48137101F036
:10E9F00061FC4B4642461B881380A3E7FDF7FAF9FA
:10EA000097E7FDF7F7F98FE7FDF7F4F951E7FDF721
:10EA1000F1F947E7FDF7EEF930E7FDF7EBF918E715
:10EA2000FDF7E8F90DE7FDF7E5F904E7FDF7E2F991
:10EA3000DAE6FDF7DFF9D1E6FDF7DCF9C7E6FDF729
:10EA4000D9F9BEE6FDF7D6F9B5E6FDF7D3F9ACE6A0
:10EA5000FDF7D0F9A1E6FDF7CDF996E6FDF7CAF985
:10EA600083E6C04658340200E020002074230020D2
:10EA7000E8250020E81F0020BDE60100ADE601000A
:10EA800034260020A5E60100722300208C230020FC
:10EA900098340200D82A0020C42A0020A9E60100E8
:10EAA000E02A00203026002070230020D02A0020F9
:10EAB000D7A3703D0AF765400000F03ECC6C47409C
:10EAC000CDCCCCCC0000204173DF7047F8B5051CDD
:10EAD0000E20002D00D17DE0002A00D17AE0002038
:10EAE0000F1C3D4908703D490B6006993C4B19606D
:10EAF0003C490B1C13CA13C313CA13C313CA13C351
:10EB0000002107223848FCF783FB384B384A394E3E
:10EB10001A60394A00219A60301C3822FCF778FBD1
:10EB20002B782A1C3370AB781032B370EB78F3700B
:10EB30006B787370331C103303CA03C3331C103A51
:10EB4000083303CA03C3331C0832183303CA03C390
:10EB50006B6A002B11D0294B294C7362696A9C6047
:10EB60000A881A8088889880002806D000238A683E
:10EB7000D25CE25401338342F9D1AB6A002B14D04A
:10EB8000204B2148B362A96A98608C889C800A88CF
:10EB90001A800023002C05D08A68D25CC25401334D
:10EBA000A342F9D12C23EA5CF2542B6A002B06D045
:10EBB000164B33622A6A5188598012881A806B6812
:10EBC000002B03D0124B73606B687360301C391CD0
:10EBD00001F070FBF8BDC046142700204826002035
:10EBE000702600207C26002074260020C4260020E9
:10EBF000A0260020E02A0020F42600203C26002049
:10EC0000502600201C270020D42600201827002092
:10EC1000C0260020002370B5A44C86B02070684642
:10EC20000093FFF795FC082800D1FEE0002833D1BF
:10EC3000009B002B30D19E4E0021301C0722FCF798
:10EC4000E7FA9C4D6B78002B2CD1AB78002B00D0D1
:10EC5000A1E02378012B00D1B3E0022B00D1CDE05D
:10EC60002A7B002A31D1032B2FD1042323702B7E42
:10EC7000002B00D172E0904B1A68002A2FD02B781D
:10EC8000002B2CD08D4B1B78002B28D101218C4BD5
:10EC900007201970904725E001220020894B1A7047
:10ECA00006B070BD2378012B04D0AA78002A76D054
:10ECB000022BD5D1804A1268002A00D1F2E001214E
:10ECC000814B082019709047C3E72A7E002A43D061
:10ECD000794A1268002A02D0033B012BCFD90022C7
:10ECE000774B1A70182268460021FCF791FA03232B
:10ECF0006A46137000226B461A72237801920392BF
:10ED0000022B00D1C1E02ED9032B00D194E0042BBB
:10ED10001FD16B46AA8B1A822A8C5A826B4B1A79A6
:10ED2000002A47D02A78002A47D0644A1278002A5D
:10ED300043D1694603930423023265480A720021D5
:10ED4000C37001F0B7FA0028AAD10622614B1A70ED
:10ED50002378002B16D00FE0042BB9D100235D4A95
:10ED600023701370BBE7012BF3D169464A820A82F4
:10ED7000584A01960B7013706846FFF7A5FE0028ED
:10ED800000D08DE74C4B1B68002B02D0514A107805
:10ED90009847002084E72378012B89D18AE7022B4A
:10EDA00000D05DE7032323702B7B002B00D15CE7B1
:10EDB00003238DE71A7B002AB4D10422454B1A7035
:10EDC000DAE76A78002A17D07278002A00D07FE745
:10EDD000B278002A00D07BE7F278002A00D077E7EB
:10EDE0003279002A00D073E77279002A00D06FE7E9
:10EDF000B279002A00D06BE702232370AB78002B96
:10EE0000D0D07378002B0ED1B378002B0BD1F378D0
:10EE1000002B08D13379002B05D17379002B02D157
:10EE2000B379002BBED0022352E76846FCF720FAE4
:10EE3000002800D1FCE6FEE66B46AA8A5A822A8A9E
:10EE40001A82224B1A79002A18D02A78002A18D060
:10EE50001A4A1278002A14D1694603930423023215
:10EE60001B480A720021C37001F024FA002800D068
:10EE700016E70522174B1A7023786AE71A7B002AD7
:10EE8000E3D10322134B1A7076E7012269460A7018
:10EE90006A4629890196518269466A680A820D4A42
:10EEA000137069E708490A70D4E6C04614270020A9
:10EEB000742600207C260020482600206F26002093
:10EEC000F32600204C26002015270020C426002011
:10EED000E02A00202827002008B50388112B20D025
:10EEE0001B2B09D0102B00D008BD837D012BFBD13B
:10EEF0008288204B1A80F7E7027A002AF4D11E4B51
:10EF00001B78022B30D027D9032B1DD0042BEBD13B
:10EF10001A4B1A701A4B1B68002BE5D0002098473B
:10EF2000E2E70022174B1A70124B82881B889A4224
:10EF3000DAD10120FFF76EFE0028D5D0124B1B68F6
:10EF4000002BD1D09847CFE70C4A04201370FFF76D
:10EF500061FE0028F2D1C7E7012BC5D10220FFF7DF
:10EF600059FE0028EAD1BFE70320FFF753FE00282F
:10EF7000E4D1B9E7F820002014270020282700203A
:10EF8000482600206F26002070260020023808B591
:10EF9000012803D8094B1A78002A00D108BD0022A5
:10EFA0001A70074B1878FFF735FE0028F6D0054B8E
:10EFB0001B68002BF2D09847F0E7C0464C26002093
:10EFC000142700207026002090DF704792DF7047E2
:10EFD00093DF7047F0B557464E464546D3238946E2
:10EFE000A621E0B446255B009446C25CFF31445C38
:10EFF000554363001B1942199B005B191779C3180D
:10F00000661C82B00A339246BE423AD07E1E8846C3
:10F01000BC422ED2A6421BD001341A8963001B19B0
:10F020009B005B19C118098A01328A421AD001ACCF
:10F030004B1E228063804946002360460B70211CD2
:10F04000FFF7C6FF02B01CBC90469946A246F0BD31
:10F0500052461B891289934210D001AC01332380A0
:10F060006280E8E7C3180A334246E4B28454A742F8
:10F07000D0D801234A4600201370E3E70023741C14
:10F08000F2E71B8912899342E7D1F2E7F0B55646C1
:10F090004D4644465F46D422F0B45200835C95B09E
:10F0A0000133DBB283544C4A041C15680E1CAB427E
:10F0B0000ED3A8230022FF33C254484B03321A70E8
:10F0C000598015B03CBC90469946A246AB46F0BD6F
:10F0D00000239B46A6235A46FF33C2540133C15C2A
:10F0E0009A460131C9B2C154613BFF3B1F1C99468E
:10F0F0003B4B4F439846C719890041440422381CB2
:10F1000004F06DF95B46301C3B7101213A1CFFF79E
:10F110005BFF0028D5D0A8235A46FF33E25453465C
:10F120004A46E35C5A43A4184246A37892789A422E
:10F1300022D0012D1BD0424692799A4245D0022D11
:10F1400015D04246927A9A4239D0032D0FD04246CA
:10F15000927B9A422DD0042D09D04246927C9A424D
:10F1600021D0052D03D04246927D9A4215D003222C
:10F170001A4B1A705E80A4E7424611882288914299
:10F18000D7D1184B19680029F1D0012201AB0290A8
:10F190005E801A70181C8847E9E743469A8A2388DC
:10F1A0009A42E4D1EDE74246118A22889142D8D1B1
:10F1B000E7E74246918922889142CCD1E1E7424675
:10F1C000118922889142C0D1DBE74246918822888A
:10F1D0009142B4D1D5E7C046302900203027002025
:10F1E000142900202C270020F0B55F4656464D46D6
:10F1F0004446F0B497B0002818D0002916D08B4BA5
:10F200001B78002B12D00B880C1C051C302B00D156
:10F21000B1E000D8A0E0322B0FD0332B06D1D5239C
:10F220005B008A88C35A9A4200D1EAE017B03CBC1E
:10F2300090469946A246AB46F0BDD5235B008A882E
:10F24000C35A9A42F2D1D3235B00C35C9846CB8861
:10F25000002B00D1E6E1A6230026FF33EE5402ABDB
:10F26000A288281CD91CFFF7B5FE002800D09EE319
:10F2700002ABDB78002BD9D0A3889C46D3235B005C
:10F28000E85C6B4B1E689846002E00D18DE3462249
:10F290004243684BAA1897789978B94201D100F097
:10F2A00022FC012E00D880E39979B94201D100F007
:10F2B0003EFC022E00D178E3997AB94201D100F0E8
:10F2C0002DFC032E00D170E3997BB94201D100F0EF
:10F2D0001CFC042E00D168E3997CB94201D100F0F6
:10F2E0000BFC052E00D160E3997D89466146B94546
:10F2F00000D082E09F8A13889F4200D07DE04E4B71
:10F3000061461B680093002B77D04C4B9A461B68D4
:10F310009946052B71D89B004B441A019346484FE0
:10F320000192BB445B465980462141430433181C7B
:10F330004622691804F053F80023019ABB545A4638
:10F34000009BD3644B46524601331360B34201D154
:10F3500000F000FCA18850E0112B00D066E7D52317
:10F360005B00C25A8B889A4200D05FE7A823002234
:10F37000FF33C2545AE7D3235B00C25C043388884E
:10F38000EB5A834200D051E7C988002900D1E7E059
:10F3900027490E688846191C002E2ED04627574351
:10F3A000EF19BB789C46234B9978614500D193E2D5
:10F3B000012E00D8F7E29979614500D185E2022E4D
:10F3C00000D1F0E2997A614500D142E2032E00D1EA
:10F3D000E9E2997B614500D18CE2042E00D1E2E2A2
:10F3E000997C614500D17EE2052E00D1DBE2997D5A
:10F3F0008946011CE14500D183E2281CFFF746FE47
:10F4000014E7D3235B00C25CA623FF33C35C9C4696
:10F41000CB88002B21D18F89002F1ED0094E0B8A5B
:10F42000B34200D105E21631002313E02C2900205D
:10F4300030290020142900202C270020102900202A
:10F4400030270020022900000631881F0088B042C2
:10F4500000D1EFE10133BB42F6D3002602ABDE70F0
:10F460004623674698465343EB181B7901379F4262
:10F4700000D0B9E1012302A9CB70A3889C46D54BEB
:10F480001E689846002E00D18FE246205043D24B92
:10F49000281887789978B94200D1B1E2012E00D8B6
:10F4A00083E29979B94200D1A3E2022E00D17CE235
:10F4B000997AB94200D195E2032E00D175E2997B89
:10F4C000B94200D187E2042E00D16EE2997CB942A4
:10F4D00000D179E2052E00D167E2997D8946614627
:10F4E000B9458AD19F8A03889F4200D085E7BB4BEC
:10F4F00061461B680193002B00D17EE7B84B9A460A
:10F500001B689946052B00D977E79B004B441B01EC
:10F510009B46B44F0093BB445B46598046214A4307
:10F52000181DA918462203F05AFF00230098019ADB
:10F530003B545B46DA644B46524601331360B34298
:10F5400000D007E70026FB6C381C984743461B6831
:10F55000013650379E42F6D3002352461360F9E637
:10F560004626211C5643AF190E310422381C03F0E5
:10F5700036FF211CB81D1231042203F030FFA623F0
:10F58000FF33EB5CA088002B00D047E1FB8803AE83
:10F5900033803B89311C7380FFF718FD002800D1B0
:10F5A00044E6A8230022FF33EA54013BE95C894B7F
:10F5B000A7881A68002A00D193E24623A9464B4344
:10F5C00099444B469978844B9D788D4200D161E2F5
:10F5D000012A00D885E29D798D4200D145E2022AB8
:10F5E00000D17EE29D7A8D4200D172E2032A00D1E1
:10F5F00077E29D7B8D4200D163E2042A00D170E264
:10F600009D7C8D4200D154E2052A00D169E29A7DA9
:10F6100094463A1C8C4500D144E20321714B197089
:10F620005A8003E6462743465F43C7193E790A7B63
:10F63000B218052A00DDEEE0D2B2131C3A719E42E8
:10F640006AD2462241465143894673009B199B006A
:10F650004B449A46AA445046211C3C3A0A300E318B
:10F6600003F0BDFE534600229A8292463A79731CFB
:10F67000934200D3CDE05A00D3189B004B449B46E5
:10F68000AB445846211C0A220A30183103F0A7FE69
:10F690005B4652469A823A79B31C934200D3B8E053
:10F6A0005A00D3189B004B449B46AB445846211C40
:10F6B0000A220A30223103F092FE5B4652469A82B9
:10F6C0003A79F31C934200D3A3E05A00D3189B006D
:10F6D0004B449B46AB445846211C0A220A302C312D
:10F6E00003F07DFE5B4652469A823A79331D93427F
:10F6F00000D38EE05A00D3189B004B449946A9448E
:10F700004846211C0A220A30363103F068FE524670
:10F710004B469A823A790536013E73009B199E004A
:10F720004621434659437318EB1838895B8A98423F
:10F7300000D890E5052A00D18DE5A623FF33EA54D1
:10F74000A088002A00D062E1FB8803AE33803B89A9
:10F75000311C7380FFF73AFC002800D166E5A8232E
:10F760000022FF33EA54A3889946D3235B00EA5C66
:10F77000184B1968002926D046235343ED18164B21
:10F78000AA789F78974200D11FE201291BD99F795F
:10F79000974200D112E2022915D09F7A974200D1F8
:10F7A00005E203290FD09F7B974200D1F8E104299D
:10F7B00009D09F7C974200D1EBE1052903D0997DC8
:10F7C000914200D1D1E10322064B1A704A465A8079
:10F7D0002CE5C04630290020142900202C270020C9
:10F7E0001029002030270020A623FF33EF5402AB5E
:10F7F000A288281CD91CFFF7EDFB002800D087E069
:10F8000002ABDB78002B00D110E5D3235B00EA5C70
:10F8100033E61E1C80E7052305220FE7013BDBB220
:10F820005A00D3189B009B19EB185B8A01339BB2DB
:10F83000ADE600235900CB185B00E318D889634676
:10F840005B006344990046235343CB18EB1898821E
:10F8500003E6198989463988894500D0B6E5B84B51
:10F86000011C1B680193002B00D1C6E5B54B9A46DD
:10F870001B689946052B00D9BFE59B004B441B0133
:10F880009B46B14F0093BB445B46598046214A4397
:10F89000181DA918462203F0A2FD02230098019A20
:10F8A0003B545B46DA644B46524601331360B34225
:10F8B00000D04FE50026FB6C381C984743461B6878
:10F8C000013650379E42F6D346E6998889463988F4
:10F8D000894500D073E5C2E719888946398889458A
:10F8E00000D065E5BBE7198A89463988894500D08B
:10F8F0007AE5B4E7998989463988894500D06CE56D
:10F90000ADE79B8A9C463B889C4500D075E5A6E701
:10F91000A8238E4AFF331268EE54013BA688EB5CA5
:10F92000002A00D19FE0414659430B1CED18884B3B
:10F93000A9789F788F4200D18EE0012A00D892E00A
:10F940009F798F4200D180E0022A00D18BE09F7A1C
:10F950008F4200D172E0032A00D184E09F7B8F4266
:10F9600066D0042A00D17EE09F7C8F425AD0052ABF
:10F9700000D178E09F7D321C8F4200D04DE6998AFD
:10F980002B88994200D048E66D4B321C196800293B
:10F9900000D142E6012203AB1A705E800490181C6D
:10F9A0008847A28839E6011C27E5614625E5A8239A
:10F9B000FF33EE54013BE95C644BA6881A68002AC9
:10F9C00051D046234B43B1E7198A894601888945BE
:10F9D00000D07FE58BE5998989460188894500D06B
:10F9E00071E584E5198989460188894500D063E578
:10F9F0007DE5998889460188894500D055E576E5F9
:10FA0000198889460188894500D047E56FE5013AA4
:10FA1000D2B253009A189200511869184B8A0133D8
:10FA20009BB292E61F8ABC462F88BC459FD1ABE7AC
:10FA30009F89BC462F88BC4593D1A5E71F89BC464A
:10FA40002F88BC4500D086E79EE79F88BC462F885C
:10FA5000BC4500D078E797E71F88BC462F88BC4597
:10FA600000D06AE790E7321CD7E59D88A8464D464E
:10FA70002D88A84500D0B2E5314B3A1C1968002901
:10FA800000D1CAE50123706077803370301C88474D
:10FA9000A288C2E51D88A8464D462D88A84500D0FD
:10FAA00096E5E9E7998A4B461B88994200D0B4E570
:10FAB000E2E71D8AA8464D462D88A84500D0A3E55B
:10FAC000DAE79D89A8464D462D88A84500D094E5E3
:10FAD000D2E71D89A8464D462D88A84500D085E56A
:10FAE000CAE73A1C99E5198889461188894501D0E9
:10FAF000FFF7D7FBFFF703FC198A89461188894570
:10FB000001D0FFF7EEFBFFF7FAFB998989461188D0
:10FB1000894501D0FFF7DDFBFFF7F1FB1989894625
:10FB20001188894501D0FFF7CCFBFFF7E8FB9988E6
:10FB300089461188894501D0FFF7BBFBFFF7DFFB42
:10FB40002C270020102900203027002030290020F9
:10FB5000142900200026FB6C381C984743461B687C
:10FB6000013650379E42F6D3F6E49A8A2B889A42A1
:10FB700000D028E6184B1B68002B00D123E64A462C
:10FB80007280012270603270301C9847A3889946B9
:10FB900019E61F8AB8462F88B84500D00DE6E9E778
:10FBA0009F89B8462F88B84500D000E6E2E71F8954
:10FBB000B8462F88B84500D0F3E5DBE79F88B84604
:10FBC0002F88B84500D0E6E5D4E71F88B8462F88CF
:10FBD000B84500D0D9E5CDE72C27002071DF70476C
:10FBE00072DF704779DF70477DDF704765DF7047F0
:10FBF000F0B50488051C83B00720012C04D01488BC
:10FC0000A01C984202D90C2003B0F0BD2E78012E22
:10FC100004D16E7802363619B342F4D3023B1C1B72
:10FC20006B460F1CA4B20818991D161CDC80FFF748
:10FC3000DBFF0028E8D12B78022B18D0012B11D044
:10FC4000231C0821FE2BDED83288581CB854328879
:10FC50000020013292B23280B954328801329B18AE
:10FC60003380D1E76B789C42EBD2231CE9E76B46EB
:10FC7000DB8809219C42E5D2231CE2E7F0B55F4610
:10FC8000564644464D46F0B485B09A460EAB80CBFE
:10FC9000061C1B8800919B463B8890460193038875
:10FCA000002B5BD00023994602AB0024DD1C03E04F
:10FCB00033880134A3422ADD7368A1009C460422E4
:10FCC000614403A803F08BFB03A8291C0022FFF763
:10FCD0008DFF002826D12B784345E9D14B46002BD8
:10FCE00027D043463A88D3185B4539DC524403A8F1
:10FCF000291CFFF77BFF002814D13B882A780134A8
:10FD0000D3183B80012399463388A342D4DC4B4669
:10FD1000002B23D03B88019A013B9B1A9BB20C20FD
:10FD2000FF2B18D905B03CBC90469946A246AB467D
:10FD3000F0BD42463B889A1802325A4510DC6946AB
:10FD40005246013309789BB23B80D1543A88013244
:10FD500092B23A80CAE7111C524653540020E1E7A0
:10FD60000C20DFE7F0B55F4656464D464446031C7F
:10FD70000020F0B417881080586B87B0002800D19D
:10FD80006FE10478022F18D902201125087010881D
:10FD9000013080B210800D541088013080B2108084
:10FDA0000C5414880134A4B21480186B002800D1BC
:10FDB00077E0251C1235BD4207D90C2007B03CBCAA
:10FDC00090469946A246AB46F0BD11250D551488C4
:10FDD000013D0134A4B214800D5514880134A4B23D
:10FDE0001480C57B0D5514880134A4B21480857B22
:10FDF0000D5514880134A4B21480457B0D55148828
:10FE00000134A4B21480057B0D5514880134A4B2CA
:10FE10001480C57A0D5514880134A4B21480857AF3
:10FE20000D5514880134A4B21480457A0D551488F8
:10FE30000134A4B21480057A0D5514880134A4B29B
:10FE40001480C5790D5514880134A4B214808579C5
:10FE50000D5514880134A4B2148045790D551488C9
:10FE60000134A4B2148005790D5514880134A4B26C
:10FE70001480C5780D5514880134A4B21480857897
:10FE80000D5514880134A4B2148045780D5514889A
:10FE90000134A4B214800078085514880134A4B247
:10FEA00014802E201D5C002D00D0DCE01E1C2D23B4
:10FEB000F35C151C8846002B00D0F7E0B378002BCC
:10FEC00000D024E1F378002B16D0E21CBA4200D90E
:10FED00073E70222414640460A5501212A88013231
:10FEE00092B22A8081542A88013292B22A808354A5
:10FEF0002C880134A4B22C807368002B16D01A7899
:10FF0000E31CBB4200D958E70223414640460B554B
:10FF10000A212B8801339BB22B80C1542B880133DB
:10FF20009BB22B80C2542B8801332B803389002B4A
:10FF300000D010E1338A002B00D076E1338B002B08
:10FF400000D08BE1336A002B4AD02A880C20911D07
:10FF5000B94200D932E7198805388B46052900D8FF
:10FF60002CE7CC4C5C44A4B2A146CB4CA446A145A2
:10FF700000D823E75C88A246052C00D81EE7C54CB4
:10FF80006946A146D1444C46CC81CC89644500D811
:10FF900014E7C24CA34504D0A24502D0D34500D9F2
:10FFA0000CE70521404681542A880D31013292B276
:10FFB0002A8081542A88013292B22A8019884244C8
:10FFC0001170090A51702A88023292B22A80598827
:10FFD000131C43441970090A59702B8802332B8073
:10FFE000746A002C32D0A2882988131D5B180C205B
:10FFF000BB4200D9E2E6931CFE2B00D9DEE6434665
:020000022000DC
:1000000003325A54FF2241462B8801339BB22B8086
:10001000CA542B8801339BB22B80228843441A7028
:10002000120A5A702B8802339BB22B80A288002AB6
:100030000CD0A1680538002900D1BFE64344181C44
:1000400003F0CDF92A88A388D3182B802C23F35CE6
:10005000002B00D098E03378002B00D0DEE00020A9
:10006000ACE60024A1E6E61C2238BE4200D9A5E693
:1000700002260E551C241088013080B210800C54CA
:100080001088013080B21080022D00D10FE100D81D
:1000900006E1032D00D108E1042D00D0F7E0032490
:1000A0000C5414880134A4B21480FFE609340C20E7
:1000B000BC4200D982E604A8FFF790FD002800D0DA
:1000C0007CE6414608222B88CA542B881332013320
:1000D0009BB22B80CA5402AB9C4609212888153A52
:1000E000013080B228806144404403F078F92B88C5
:1000F00002AA0633127A9BB22B80002A00D001227A
:100100004146CA542C880134A4B22C80D6E604346B
:100110000C20BC4200D951E604A8FFF763FD00287B
:1001200000D04BE6032241462B88CA542B88163256
:1001300001339BB22B80CA542B8802AA01339BB295
:1001400012892B8043441A70120A5A702C88023488
:10015000A4B22C80B6E6341C083400950197201C0C
:10016000022102224346FFF789FD002800D025E640
:1001700000950197201C062110224346FFF77EFDC3
:10018000002800D01AE6D5E6B46A002C00D17EE043
:10019000A3880233FE2B00D90FE6002291461632C7
:1001A00092461632288893460BE04B465C00B36AB1
:1001B0004C449C46A4006444A3880233FE2B00D91F
:1001C000FBE542465146013313542B8801339BB261
:1001D0002B80D1542B8801339BB22B80228843443F
:1001E0001A70120A5A702888023080B22880A288B9
:1001F000002A0AD0A168002949D0404403F0EFF852
:100200002888A388C01880B228804B460133DBB20F
:1002100099465B46F35C4B45C7D81CE7301C41460A
:100220002A1C3B1CFFF7E4FCC8E5341C1034009585
:100230000197201C032102224346FFF71FFD0028DF
:1002400000D0BBE500950197201C072110224346F2
:10025000FFF714FD002800D0B0E56FE6341C183419
:1002600000950197201C142102224346FFF706FD4A
:10027000002800D0A2E500950197201C152110222E
:100280004346FFF7FBFC002800D097E55AE607201D
:1002900094E5C0467FF3FFFF7DF30000FFFF000001
:1002A000012DF4D100240C54FBE60E54F9E6012490
:1002B0000C54F6E6F0B54E46574645461F23E0B4CB
:1002C00096B002AA041C0E1CD381002800D171E054
:1002D000C3785B0767D5002302AA9381436B002B89
:1002E00000D13EE11B78022206ADAB700323032749
:1002F000052104202A700F326A7002AA9381226BB2
:10030000002A3AD0112306ADEB55013B2B54D37B89
:100310006B54907B4B1CE854507B8B1CE854107B37
:10032000CB1CE854D07A0B1DE854907A4B1DE8544E
:10033000507A8B1DE854107ACB1DE854D0790133E4
:10034000E85490790133E85450790133E854107936
:100350000133E854D0780133E85490780133E854FD
:10036000013302A883815078E854013302A88381C5
:100370001278EA54013383819BB22E22A25C002AB8
:1003800000D0F1E12D22A25C002A00D011E1A27878
:10039000002A00D03DE1E278002A35D0D91C1F297F
:1003A00025D90C2000E0072016B01CBC90469946C9
:1003B000A246F0BD002502AB9881002E00D1D4E00A
:1003C000F378002BEFD102AA94460E236344301C2D
:1003D0000EA91A1CFFF7C6FC0028E5D102AB9B7BD7
:1003E0000EAA02A9097B281CFFF7FAFBDCE7022012
:1003F000012706ADE854581C02339BB280B22F543B
:10040000EA548BB202AA93816268002A0FD0107856
:10041000DA1C1F2AC5D802210A2706ADE954591C47
:1004200002339BB289B26F54E85402AB9A8123899C
:10043000002B00D09EE0238A002B00D00AE1238B02
:10044000002B00D025E1236A002B43D002AA928919
:100450000C20911D1F29A7D81888824655460720D1
:10046000052DA1D9D24D5544ADB2AC46D14DA846CB
:10047000AC4599D95D88A946052D00D894E7CC4DA7
:100480006F46AC46CC446546FD81FD89454500D8A4
:100490008AE7C94DAA4504D0A94502D0CA4500D96A
:1004A00082E70520122706ADA854501C80B22F54B5
:1004B000901C80B202AFB8811F88281807703F0ACD
:1004C000477004325B8892B2AD182B701B0A6B70B8
:1004D00002AB9981676A002F2FD0BB880C20991C32
:1004E00002AB9B899A1C55181F2D00D95CE7FE2989
:1004F00000D959E706AD0131E954591C89B2F330EE
:10050000685492B202A98A813988AA1804331170FA
:1005100098B2090A02AB51709881BA88002A0CD0AF
:10052000B968002900D13EE7281802F058FF02AB55
:10053000BA889B89D31802AA93812C23E15C0029F5
:1005400000D0C5E006AD2378002B00D135E7201C94
:10055000291C05AA1F23FFF74BFB002800D12CE71D
:1005600022E7002702210120C9E602ABDE8100223A
:10057000002336E705AB271C00931F23083706AD81
:1005800098460193381C022102222B1CFFF776FBB0
:10059000002800D008E705AB00934346381C0193C0
:1005A000062110222B1CFFF769FB002800D0FBE678
:1005B00041E709330C201F2B00D9F5E60EA8FFF701
:1005C0000DFB002800D0EFE6082202AB9B8906ADA8
:1005D000EA545A1C023398B21B2102AB9C4692B2D9
:1005E000A9541631988161440622281802F0F7FEBA
:1005F000302002AB02A99B89091809789A1D92B292
:10060000002900D001210733A9549BB202AA93818B
:10061000BDE604330C201F2B00D9C5E60EA8FFF75A
:10062000E1FA002800D0BFE60322192102AB9B8922
:1006300006ADEA545A1C92B2A95402AA118E9A1C11
:1006400092B2AD18043329709BB2090A02AA6970EC
:100650009381A0E605AB271C00931F23103706AD3E
:1006600098460193381C032102222B1CFFF706FB3E
:10067000002800D098E605AB00934346381C019350
:10068000072110222B1CFFF7F9FA002800D08BE677
:10069000D5E605AB271C00931F23183706AD9846F7
:1006A0000193381C142102222B1CFFF7E7FA0028C3
:1006B00000D079E605AB00934346381C0193152121
:1006C00010222B1CFFF7DAFA002800D06CE6BAE6FD
:1006D000A76A002F00D166E6BB880233FE2B00D943
:1006E0005FE602AA908900229046163291461632A1
:1006F000924606AD4A4601332B54431C9BB2EA5442
:10070000831C9BB202AA93813A88EB181A700430BA
:10071000120A5A7080B202AB9881BA88002A0FD0B0
:10072000B968002900D13EE6281802F058FE02AB55
:100730009B89B888C01880B202AB98815346E15CAF
:1007400043460133DBB298468B4200D3FBE6434677
:100750005F00A36A47449C46BF006744BB880233DE
:10076000FE2BC7D90C201FE602201C27591C06AD02
:1007700089B2E8546F54191889B282420CD010D94A
:10078000032A0CD0042A00D00DE603226A54033356
:100790009BB202AA9381F5E501226A54F7E76854F7
:1007A000F5E7012A00D0FEE500226D182A70EEE779
:1007B0007FF3FFFF7DF30000FFFF000030B51B4B10
:1007C0001B4A5B88118883B099420FD852889A429D
:1007D0000CD3184B5B69002B03D0012201A80270D7
:1007E0009847154C0023237003B030BD124C23787A
:1007F000002B08D00F4B5B69002BF3D0002201A81F
:1008000002709847EEE70D4B0A4D1B78002B0BD07A
:10081000A9680B480022FBF769F80028E2D0AB6911
:10082000002BDFD09847DDE76968F2E73829002020
:100830008429002044290020342900204029002058
:100840006029002010B50388112B31D01FD9122B3D
:1008500016D0502B1AD11F4CC288E3899A4215D169
:10086000038A022B12D1837CDB070DD41A48FBF7D5
:10087000B9F800280AD0A369002B07D0984705E0F3
:10088000164B083006C806C3FFF798FF10BD102BA3
:10089000FCD18288124B18301A80104B06C806C350
:1008A0000022104B1A700B4BDB89002BEED1EBE7CB
:1008B00001220B4B52421A8000220A4B06481A7042
:1008C000FBF790F80028E1D0024B9B69002BDDD0AC
:1008D0009847DBE7442900206029002038290020C0
:1008E00080290020402900207FDF704786DF704785
:1008F000A7DF7047A9DF7047AADF70470020704765
:10090000002070470020704700207047002070478B
:100910000020704700207047344AF8B54F46914692
:1009200046464C46C0B44378071C5900CA18D0004C
:1009300024186468002C0BD02D4E9200B218927AC5
:1009400055B2002D45DB002200250024904604E02E
:100950000022002500249046254ECB189B00F3185A
:1009600018894146221C2B1CFFF7C4FF0B2808D016
:10097000002814D01F48012D14D00CBC9046994675
:10098000F8BD7B7841465A00D3189B00F3181889AC
:10099000221C0123FFF7AEFF002803D10125002010
:1009A000012DEAD17B780C215A00D3189B00F61850
:1009B0003089114AFFF79CFF0028DED002220F4B3E
:1009C000C31893430FD008280DD011280BD0002056
:1009D000D3E75206B7D4021C083290464A46C844B0
:1009E000A4B21558B9E70348C7E7C046882A0020D3
:1009F0009429002041800000FFFF0000FECFFFFF90
:100A0000F0B587B00E236A46D3804B782C4D5A0040
:100A1000D3189B00EB18061C18896B460C1C9A1DFA
:100A200002A90323FFF768FF002802D0002007B0C7
:100A3000F0BD6378234F5800C0186B46C0000830E3
:100A4000DA88381802A902F0BBFC6378002826D0A7
:100A50005900CA18D200BA185268002A2DD11A4D6E
:100A60000322CB18DB00FA506B46DA886378590012
:100A7000CB18DB00FB185A60637802A95800C01835
:100A8000C0000830381802F0AAFC6378301C590006
:100A9000C918CB00F91818223823A847C6E7580010
:100AA000C3189A00AD18AA7A9207BFD4DB00F818D1
:100AB00000211822FAF7ACFBB8E7044DD0E7C04696
:100AC00094290020882A0020E1E2010071E301005E
